:020000040800F2
:100000000010002095720008917100089B71000893
:1000100000000000000000000000000000000000E0
:10002000000000000000000000000000A1710008B6
:100030000000000000000000AB710008B57100086E
:10004000E5720008E5720008C9710008E572000851
:10005000E5720008E1710008E5720008E572000829
:1000600000000000F5710008E5720008E572000864
:10007000E5720008E5720008E5720008E572000804
:10008000E57200080000000000000000E5720008B2
:1000900000000000E5720008E5720008E572000843
:1000A00000000000E572000800000000E572000892
:1000B0000000000000000000000000000000000040
:1000C00010B5064C2378002B07D1054B002B02D02E
:1000D000044800E000BF0123237010BD0800002089
:1000E0000000000030730008084B10B5002B03D04F
:1000F0000749084800E000BF07480368002B00D10B
:1001000010BD064B002BFBD09847F9E7000000001C
:100110000C000020307300080800002000000000E0
:10012000002243088B4274D303098B425FD3030A36
:100130008B4244D3030B8B4228D3030C8B420DD349
:10014000FF22090212BA030C8B4202D312120902D7
:1001500065D0030B8B4219D300E0090AC30B8B4215
:1001600001D3CB03C01A5241830B8B4201D38B03C3
:10017000C01A5241430B8B4201D34B03C01A524168
:10018000030B8B4201D30B03C01A5241C30A8B42AB
:1001900001D3CB02C01A5241830A8B4201D38B0296
:1001A000C01A5241430A8B4201D34B02C01A52413A
:1001B000030A8B4201D30B02C01A5241CDD2C309AC
:1001C0008B4201D3CB01C01A524183098B4201D328
:1001D0008B01C01A524143098B4201D34B01C01A13
:1001E000524103098B4201D30B01C01A5241C3088B
:1001F0008B4201D3CB00C01A524183088B4201D3FA
:100200008B00C01A524143088B4201D34B00C01AE5
:100210005241411A00D20146524110467047FFE751
:1002200001B5002000F006F802BDC0460029F7D055
:1002300076E770477047C046002B15D1002A13D1CE
:10024000002906DB01DC002806D00020C04341085D
:1002500002E080210906002007B4024801A14018ED
:10026000029003BDD1FFFFFF03B4684601B50298B9
:1002700000F030F8019B9E4602B00CBC7047C046AF
:10028000F0B5CE46474615042D0C2E0080B5070468
:10029000140C3F0C9946030C7E435D436743634354
:1002A0007F19340CE4199C46A54203D980235B02D4
:1002B0009846C4444B46514343433604360C250C00
:1002C00024046544A4195918491920000CBC90460F
:1002D0009946F0BDF0B583B016001F000090019163
:1002E00001F02CF904000D0002000B003000390071
:1002F000FFF7C6FF009A019B121A8B410899200054
:100300000A604B60290003B0F0BDC046F0B5574607
:100310004E46DE464546E0B544024300C60F83B074
:100320000F1C640A1B0EB24653D0FF2B27D080222D
:10033000E400D20414437F225242904698440023A2
:1003400099469B467D027800FB0F6D0A000E0093D4
:1003500024D0FF2846D080230021ED00DB041D437C
:100360007F384746381A4F460F43BF00B94633001F
:10037000009A874F53404A46BA5801939746002C3B
:100380004ED108239946F7339846FD3B9B467D02A4
:100390007800FB0F6D0A000E0093DAD1002D26D1F4
:1003A000002001213300009A7A4F53404246101A30
:1003B0004A460A439200BA581D009746009B2C00FB
:1003C0009A468B465B46022B31D15346FF210024CF
:1003D00038E0002C17D104239946002398460133B6
:1003E0009B46AFE7FF20002D0BD10221DAE7280062
:1003F00001F086F8431F9D4076235B42181A0021C6
:10040000AFE70321ADE7200001F07AF8431F9C40DD
:1004100076235B421B1A9846002399469B4691E738
:100420000C239946F3339846FC3B9B468AE7032B03
:1004300000D1A5E05546012B00D081E00123002129
:1004400000242B406402C905600ADB0708431843F7
:1004500003B03CBC90469946A246AB46F0BD802412
:100460000023E403FF21EDE7FF210024EAE7012355
:10047000591A1B2966DD019A134000210024E1E787
:100480008023DB031C4238D01D4251D01C43640240
:10049000640A3300FF21D5E763016C01A3423BD21C
:1004A0001B260021013801251F0049005B00002F99
:1004B00001DB9C4201D81B1B2943013E002EF3D1D6
:1004C0001C00631E9C410C4301007F310029CEDDDE
:1004D000630704D00F232340042B00D004342301EE
:1004E00003D501002C4B80311C40FE290DDD01237A
:1004F000019AFF2113400024A4E78023DB031C435F
:100500006402640A3300FF219CE70123019AA401DD
:10051000640AC9B2134095E71B1B1A260121C2E7E2
:10052000009B8B469A4600244CE76302E5D50025E4
:100530008024E4032C436402640A009BFF2181E7CA
:100540000195C1E723002020CB40411A8C40611E59
:100550008C411C43630704D00F232340042B00D09D
:100560000434630105D50123019A012113400024BD
:1005700068E70123019AA401640A1340002161E79E
:100580008023DB031C436402640A5346FF2159E7BE
:10059000D073000810740008FFFFFFF7410243000A
:1005A000C20F490A1B0E00207E2B0DDD9D2B0CDC9B
:1005B000802000040143952B0ADC9620C31AD94001
:1005C0004842002A00D108007047034BD018FBE7CF
:1005D000963B9940F4E7C046FFFFFF7F70B50028C7
:1005E00030D0C317C4185C40C50F200000F088FF4E
:1005F0009E231B1A962B0DDC9622D21A94402A00B9
:100600006402640ADBB26402DB05600AD2071843A5
:10061000104370BD992B19DC9922D21A002A29DDCA
:1006200094402200144C1440510704D00F210A407A
:10063000042A00D00434620113D4A401640ADBB29A
:100640002A00E0E7002200230024DCE70522210045
:10065000121AD140B922D21A9440621E94410C431E
:10066000DAE7054B2A001C409F23A4011B1A640AE9
:10067000DBB2C8E72200D5E7FFFFFFFB10B5041E81
:1006800027D000F03DFF9E231B1A962B0ADC9622F2
:10069000D21A94406402640ADBB26402DB05600A89
:1006A000184310BD992B17DC9922D21A002A27DD96
:1006B00094402200134C1440510704D00F210A40EB
:1006C000042A00D00434620112D4A401640ADBB20B
:1006D000E3E700230024E0E7B9222100D21A914089
:1006E0000A00511E8A410521091ACC401443DBE758
:1006F000044B1C409F23A4011B1A640ADBB2CCE705
:100700002200D7E7FFFFFFFBF0B557464546DE4620
:100710004E46E0B54C000E0387B0834692461D005E
:100720008046360B640DCF0F002C4FD06F4B9C4290
:1007300035D08023420F1B04F60013433343994600
:10074000C30098466A4B00269C46002364440393EA
:100750002B031B0B9B466B00ED0F50465B0D019569
:100760005ED0624A934253D05A46D1008022400F55
:10077000120402430A4393465246D1005C4A94460F
:10078000002263443800684084460290E41A16430D
:100790000F2E00D9B4E0574BB6009B599F4603007B
:1007A000334399466CD100239846023308260393BD
:1007B000CEE7CB464146039A0197022A65D1019BB9
:1007C0004A4C9C460023002298466BE003003343CA
:1007D00099464ED0002E00D1BCE1300000F090FED2
:1007E00003000B3B1C2B00DDACE11D22D31A5A4643
:1007F0000100DA4008398E401300334399465B46C6
:100800008B40984600233C4C0026241A03939FE714
:1008100051465A46114329D1002293460232B1E78C
:10082000594601431ED05B46002B00D19EE158463D
:1008300000F066FE03000B3B1C2B00DD8FE1020085
:100840005946083A91408B461D21CB1A5146D94052
:100850000B0059460B4351469B469140264B0022C4
:100860001B1A8FE7002301229B468BE75146032288
:1008700088E700239846013304260024039367E7A2
:100880000323B14603930C2662E7032A00D15CE2FE
:10089000019B012A00D0E4E113409C460023002480
:1008A0000022984600211203130B0A0D12051A4369
:1008B0002305124C40462240134362465B00D20798
:1008C0005B081343190007B03CBC90469946A2460A
:1008D000AB46F0BD002380229C4612039846034C91
:1008E000E0E70023014C00229846DBE7FF07000009
:1008F00001FCFFFF507400080DFCFFFFFFFF0F809D
:10090000D94500D939E100D134E1002346464D46AE
:100910009A46013C5B460A0E1B021A430B02170C57
:10092000039313041B0C3900280090460193FFF732
:10093000F7FB0200019B83465A4328003900914689
:10094000FFF774FC350C09040D43A9450DD95B462E
:100950004544013BA84500D93AE1A94500D837E113
:1009600002235B429C464544E3444B46EB1A390064
:1009700018000493FFF7D4FB019B050043433900A3
:1009800004989946FFF752FC330409041B0C0B43EF
:10099000994509D943446A1E984500D91AE19945F9
:1009A00000D817E1023D43444A469B1A5A461204B6
:1009B0002A4303999346100C0A0C914609045A469F
:1009C000090C4E460D001204120C4543059151438B
:1009D0007243704352190E0CB218954203D9802508
:1009E0006D02AC466044150C09041204090C281869
:1009F0005218834200D2CEE000D1C8E01D1A5346FF
:100A00009E1AB24592415242AB1A9A46984500D17D
:100A100017E139001800FFF783FB019B05004343F2
:100A2000390050460493FFF701FC04980B04310C85
:100A30001943884209D941446B1E884500D907E112
:100A4000884200D804E1023D4144049BCB1A1800BF
:100A500039000493FFF764FB019B8246434339004E
:100A600004980193FFF7E2FB01980B043104090C91
:100A7000194388420DD953464144013B884500D96A
:100A8000E8E0884200D8E5E002235B429C4641440E
:100A9000E244019B2D04CE1A51462943059D4F4641
:100AA0002A000B04080C1B0C5A4345437B43784334
:100AB0005B19170CFB189D4203D980256D02AC46CB
:100AC00060441D0C12041B04120C28189B1886424B
:100AD00000D293E000D18EE001231943A04BE3182C
:100AE000002B00DC99E04A0700D09EE05A46D20174
:100AF00006D55A469B4B1A4080239346DB00E318E9
:100B0000994A934268DD0123029A984C1A400023C7
:100B1000944698460022C5E680224B4612031342B3
:100B20000AD05B46134206D11A431203120BAC469D
:100B300088468E4CB6E64B461A431203120BBC464F
:100B40008A4CAFE603005A46283B9A400023914660
:100B5000984657E6584600F0D3FC203040E60300A4
:100B60005246283B9A400021934677E600F0C8FCA5
:100B700020305FE6884500D2C7E64B46DE075D08B9
:100B800043465B081E434346DB079A46C2E6002500
:100B9000924500D333E7039E5946B446E244B2453A
:100BA000AD416D424544EB180139984507D2984252
:100BB00000D97FE000D1BCE01D1A8B461FE79845A5
:100BC000FAD1039D5545F2D943468B461D1A16E7C7
:100BD0009B46CAE61500E7E65A46C90852070A438B
:100BE0005B0590465C0D5A4601230299520219405A
:100BF000120B8C4656E6002B00D16FE746444A1E86
:100C0000B04529D91100864200D065E7039A934286
:100C100000D061E762E7012149420120C21A382A67
:100C200021DD029B03409C4638E60F220A40042A3D
:100C300000D15BE70A00111D914292415242934458
:100C400054E7474BE318002BE5DD01225242F2E75F
:100C50001D00FAE69A461CE7B04239D86ED0110062
:100C60003AE702933AE71F2A3CDC20239B1A0C0048
:100C70005846994098404B1E99415B46D440D3401A
:100C8000204308431A00430709D00F230340042BD5
:100C900005D00100081D88429B415B42D218130217
:100CA0003AD50123029A01241A400023944698461B
:100CB0000022F7E5022149428C46039DE344AC46FD
:100CC000E244AA45AD416D424544ED182D1A96E621
:100CD0008A1E03994D008D4289414942414476184C
:100CE00003958FE71F204042C31A5846D84003009F
:100CF000202A28D040205D46821A954029434A1E6A
:100D000091411943072300220B4009D00F230022F1
:100D10000B400800042BBDD1010053075202120BF7
:100D2000C9081943012388460299002419408C46BA
:100D3000B8E55245BED88B46002560E6039D9D422E
:100D4000C6D3110062E70025D8E780225B46120374
:100D50001A43019B1203120B9C468846034CA1E5E3
:100D6000FF030000FFFFFFFEFE070000FF0700007B
:100D7000F0B557464546DE464E46E0B50C0398466C
:100D80004E00230B87B0070092469B46760DCD0F91
:100D9000002E6BD06D4B9E4235D080245B46420FB7
:100DA0002404DB0014431C43C3009946684BA3464C
:100DB0009C46002300276644029343461C035A00C6
:100DC000DB0F5046240B520D984600D176E05F4B66
:100DD0009A426DD08023410F1B040B435C49E40011
:100DE0008C461C43C300002062444146B61869404B
:100DF000721C0191944607430F2F00D9B0E0554A69
:100E0000BF00D25997465B460343994600D087E01E
:100E100000239B46023308270293CEE74246019205
:100E2000022867D0032800D10EE2012800D062E139
:100E3000002300240022994601990140CDB20021EF
:100E400012030B0D120B1B051343434A24051340D9
:100E50001C436400ED0764082C434846210007B09A
:100E60003CBC90469946A246AB46F0BD034399462A
:100E70004FD05B46002B00D189E1584600F040FB83
:100E800003000B3B1C2B00DD7AE11D22D31A3A0034
:100E900001005C46DA4008398C4013008F40234340
:100EA0009B46B94600232D4E0027361A029384E74D
:100EB000534623432AD10024022096E75346234376
:100EC00020D0002C00D157E1200000F019FB0300D6
:100ED0000B3B1C2B00DD49E11D21CB1A51460200C2
:100EE000D9405346083A944093400C431B4A121A87
:100EF00000207AE70125019B144C1D4000230022AD
:100F000099469CE70024002201206EE75346032007
:100F10006BE700239B4601330427002602934CE72E
:100F2000032381460C27029347E7802200230025F4
:100F300012039946054C82E75C464B4602986FE7E0
:100F40005C464B46019502986AE7C046FF070000E1
:100F500001FCFFFF90740008FFFF0F800DFCFFFFF6
:100F60004A464946170C1A0C1B041B0C08041900AE
:100F7000000C41431500884619007D4379430395D1
:100F800089462900150045434D44029545462D0CE0
:100F9000AA46029D5544A94506D98A4680214902A0
:100FA0008946CA4451460391290C049141460904DB
:100FB0002D04090C88462900250C24044144240CE6
:100FC0000591210041438846210079438A466843C0
:100FD000414650448146080C48446F43824503D93A
:100FE0008021490289464F44010C89463900494411
:100FF000029141460F0404993F0C88460004C01931
:1010000080444146049159460F0C0904090C884656
:1010100059438A4639005143894641464A4351461D
:10102000090C8B467B43D2185A44934203D9802340
:101030005B029B46D94451460904090C8A46414645
:1010400061437C43130C12044B445244A1468A462C
:101050003C0041466C434D4351464D440F0C7D19B5
:10106000A94503D98021490288464444049F039935
:10107000B84641448B4683458041414288465146AB
:1010800008042F04000C3F1858460299101889468E
:10109000904292414F44BA46524299469346C244C6
:1010A000D144CB448F42BF41C245894199459B41C0
:1010B000934592417F4249422D0C52420F435B427D
:1010C00013437F19FF185B463C19DB0D059A640238
:1010D0001C43430213435D1EAB415A46C00D0343FC
:1010E00052021343E20156D501205A08034013432C
:1010F000E207134364085A48604400284DDD5A074C
:1011000009D00F221A40042A05D01A1D9A429B4189
:101110005B42E4181300E20104D58020514AC0006C
:1011200014406044504A904200DDE3E60125DB08AC
:1011300062071A436402019B9146220B4405640D29
:101140001D407CE6802259461203114208D0144209
:1011500006D122431203120B45469946434C6EE6D4
:101160005B461A431203120B404C68E603005446D8
:10117000283B9C400023B9E600F0C2F92030A6E6E7
:101180000300283B9F400023BB4699468AE600F0B7
:10119000B7F9203074E6B446ADE701252A1A382A9B
:1011A00006DD019B00241D4000230022994646E6EF
:1011B0001F2A21DC20252000AD1A1E00AB40A840CC
:1011C000D6405D1EAB4130431843D440430709D09D
:1011D0000F230340042B05D00300181D98429B41A8
:1011E0005B42E418230221D50125019B01241D4007
:1011F00000230022994622E61F2521006D42281A6D
:10120000C1400800202A1DD05F35AA1A944023430C
:101210005C1EA341072503431D400022002D09D079
:101220000F2200241A401800042AD6D103006507B3
:101230006402220BDB082B4301259946019B002405
:101240001D40FCE50024E2E7802201251203224331
:1012500001991203120B0D409946044CEFE5C0466C
:10126000FF030000FFFFFFFEFE070000FF07000076
:1012700030B5134D0A034B00120B5B0DC90F002450
:10128000AB4210DD0F4CA3420FDC80240E4D6403F3
:101290002243ED1A1F2D0BDD0C48C31ADA405442CD
:1012A000002900D11400200030BD094BCC18FAE70A
:1012B000084CE840A44663449A400243EFE7C04626
:1012C000FE0300001D0400003304000013040000AE
:1012D000FFFFFF7FEDFBFFFF10B5041E28D000F0DD
:1012E0000FF9154B154A1B1AD21A1F2A15DD144A7D
:1012F000D21A9440002224035B05240B5B0D0021CD
:10130000100024030A0D240B120522430D4C1B056B
:10131000224013435B00590810BD210091400A0090
:101320000B21081AC4405B052403240B5B0DE6E780
:10133000002300240022E2E71E0400003304000022
:1013400013040000FFFF0F804100090E4B1C70B515
:10135000DBB24602750AC40F012B14DDE0239B00AB
:101360006D07360BCB1800210A0D280012051C4D05
:1013700032435B052A405B0813435B00E4075B08CC
:101380002343190070BD002914D1002D1ED0280060
:1013900000F0B6F80A281CDC0B232A001B1ADA40DE
:1013A000030015339D400F4B12031B1A5B05160BF0
:1013B0005B0DD8E7002D06D0320B802636036D0773
:1013C0001643094BCFE7084B0026CCE70023002645
:1013D000C9E703002A000B3B9A400025E3E7C0461B
:1013E000FFFF0F8089030000FF070000F0B54C00ED
:1013F000640D0B03621C450F5B0A52052B43C90F9A
:10140000C500520D012A28DD3A4AA618FE2E1BDC23
:10141000002E3EDD80010200501E82416D0F2A43E6
:10142000DB0013435A0704D00F221A40042A00D0CD
:1014300004338022D2041A405AD00136FF2E03D042
:101440009B015B0AF4B201E0FF2400235802E4058B
:10145000400AC90720430843F0BD002C07D01D43B4
:10146000F2D08020DB0080040343FF26DAE72B4321
:1014700003D00523DB08FF2C03D05B025B0AE4B238
:10148000E4E7002B32D08020C00303435B025B0AF9
:10149000DCE73200173214DB80221E2712041343CC
:1014A000BF1B1F2F0FDC144A944664442A00A5403A
:1014B0002E00A340751EAE41FA403343134300266D
:1014C000B0E70024D5E702225242961B1A00F240F0
:1014D000202F09D0094884466444A3402B435D1E55
:1014E000AB41002613439DE70023F7E70023ADE758
:1014F0003400BFE780FCFFFF82FCFFFFA2FCFFFF80
:101500001C2101231B04984201D3000C10391B0A33
:10151000984201D3000A08391B09984201D30009F7
:10152000043902A2105C40187047C046040302024E
:10153000010101010000000000000000F0B54E466E
:101540005746DE464546E0B5060000200F0083B052
:1015500019008146002F00DA8CE0002900DA80E0D3
:1015600034003D0092469846BB4269D866D0414659
:10157000504600F0BFF883463900300000F0BAF85A
:101580005B461B1A9C46203B9B4600D587E0514694
:10159000584681400B005146604681400A00BB42DC
:1015A00000D972E06ED034003D005946A41A9D4126
:1015B000002900DA8AE00021002001260090019134
:1015C00059468E400196614601268E40614600963E
:1015D000002961D0D90756080E435F0861460122F1
:1015E00000230CE0AF4201D1A6420AD8A41BBD41A2
:1015F00024196D410139A4185D41002906D0AF427C
:10160000F0D9013924196D410029F8D15B460098C1
:10161000019900196941002B4DDB2E00DE40634625
:101620002C00DC405B46002B5BDB34009C4023003D
:101630006446A6403200801A994103E0B24296D92E
:10164000002000214B46002B04D003000C00002199
:101650005842A14103B03CBC90469946A246AB46D5
:10166000F0BD4946C9431000894619000023424293
:101670008B4175E734003D00013800276642AF41D9
:1016800081466AE7B14200D88DE700210020009032
:101690000191614600299DD100980199D2E76246E7
:1016A00040462023514690409B1AD94003000091A8
:1016B00000990B436FE7624620239B1A2A009A4049
:1016C000260013006246D6401E43A8E76146202646
:1016D0000127761A00200021F74000900191019720
:1016E00071E762462023350094409B1ADD402300B9
:1016F0002B439DE710B5002903D1FFF701FF2030F0
:1017000002E0081CFFF7FCFE10BDC04680B500AF2C
:10171000074B074A126810210A431A60002000F0A4
:1017200009F805F015FC00231800BD4680BDC04631
:101730000020024080B582B000AF786002F0B0FBBC
:101740000200FA2399001000FEF7EAFC03001800DB
:1017500000F0BAFD796801235B420022180000F016
:101760007DFD00231800BD4602B080BD80B500AFEE
:10177000034B1B685A1C024B1A60C046BD4680BD15
:101780002400002080B500AF024B1B681800BD4646
:1017900080BDC0462400002080B584B000AF7860D2
:1017A000FFF7F0FF0300BB607B68FB60FB68013361
:1017B00002D0FB680133FB60C046FFF7E3FF020085
:1017C000BB68D21AFB689A42F7D3C046BD4604B044
:1017D00080BD000080B584B000AF78600F23FB1897
:1017E00000221A700023BB607B68002B01D101230B
:1017F00024E17B685B6C002B0AD17B6800229A6431
:101800007B684022002199547B68180005F0D8FBC2
:101810007B685B6C1022134000D002E10F23FB18A1
:101820001B78002B00D0FCE07B681B689B680422BF
:10183000134000D0F5E07B685B6C824A13400222C3
:101840001A437B685A647B681B689B6803221340B9
:10185000012B12D17B681B681B6801221340012BEE
:1018600009D07B681B68DA6880231B021A4080233A
:101870001B029A4201D1012300E00023002B16D164
:101880007B681B687A681268D26818218A43110045
:101890007A6892680A43DA607B681B687A68126823
:1018A0001269920091087A6852680A431A617B684B
:1018B0001B687A681268D26863490A40DA607B68FC
:1018C0009B699A037B68DB69DB031A437B681B6AAD
:1018D0005B031A437B685B6B012B02D080235B01A7
:1018E00000E000231A437B68DB681A437B681B69AE
:1018F000022B01D1042300E000231A437B681B6BF9
:101900005B001343BA681343BB607B685B6A012BBF
:1019100015D17B681B6A002B05D1BB68802252025F
:101920001343BB600BE07B685B6C20221A437B682F
:101930005A647B689B6C01221A437B689A647B68BB
:101940009A6AC223FF339A4207D07B689A6A7B68FF
:10195000DB6A1343BA681343BB607B681B687A6811
:101960001268D168BA680A43DA607B689A6B802390
:101970005B059A421BD07B689B6B012B17D07B6861
:101980009B6B022B13D07B689B6B032B0FD07B6868
:101990009B6B042B0BD07B689B6B052B07D07B6864
:1019A0009B6B062B03D07B689B6B072B12D17B684C
:1019B0001B687A681268526907218A435A617B68FA
:1019C0001B687A68126851697A68926B0720024036
:1019D0000A435A617B681B68DB681C4A1A40BB6873
:1019E0009A420BD17B6800229A647B685B6C03226D
:1019F000934301221A437B685A641CE07B685B6C4A
:101A00001222934310221A437B685A647B689B6CB2
:101A100001221A437B689A640F23FB1801221A7073
:101A200009E07B685B6C10221A437B685A640F23C1
:101A3000FB1801221A700F23FB181B781800BD46F3
:101A400004B080BDFDFEFFFF1902FEFFE7FF3F83EC
:101A500090B587B000AFF860B9607A601723FB18C3
:101A600000221A70FB681B689B68042213405ED139
:101A7000FB6840229B5C012B01D102235EE0FB68E6
:101A8000402201219954FB68DB69012B07D0172301
:101A9000FC18FB68180000F087F903002370172377
:101AA000FB181B78002B46D1FB685B6C254A134062
:101AB000802252001A43FB685A64FB6800229A6431
:101AC000FB68402200219954FB68DB6B1E4A9A6236
:101AD000FB68DB6B1D4ADA62FB68DB6B1C4A1A632E
:101AE000FB681B681C221A60FB681B68FA68126896
:101AF000526810210A435A60FB681B68FA68126832
:101B0000D26801210A43DA60FB68D86BFB681B6866
:101B100040331900BA687B6800F05EFCFB681B6804
:101B2000FA681268926804210A439A6003E0172356
:101B3000FB1802221A701723FB181B781800BD46E9
:101B400007B090BDFEF0FFFFA11E0008551F000862
:101B5000731F000880B582B000AF78607B681B6897
:101B60001B6C1800BD4602B080BD80B582B000AFCE
:101B70007860C046BD4602B080BD80B582B000AF7F
:101B80007860C046BD4602B080BD000080B584B01C
:101B900000AF786039600F23FB1800221A70002311
:101BA000BB607B689A6B80235B059A4211D07B688F
:101BB0009B6B012B0DD07B689B6B022B09D07B6844
:101BC0009B6B032B05D07B689B6B042B01D07B6840
:101BD0009B6B7B6840229B5C012B01D10223D1E0EF
:101BE0007B684022012199547B681B689B68042212
:101BF000134000D0B5E03B685B68644A934200D173
:101C000083E07B681B687A681268916A3A68126898
:101C10000120904002000A439A627B689A6B8023FD
:101C20005B059A4237D07B689B6B012B33D07B6876
:101C30009B6B022B2FD07B689B6B032B2BD07B687D
:101C40009B6B042B27D07B689B6B052B23D07B6879
:101C50009B6B062B1FD07B689B6B072B1BD03B68B5
:101C60009A687B681B685B6907210B409A4212D017
:101C70007B681B687A681268526907218A435A6137
:101C80007B681B687A68126851693A689268072015
:101C900002400A435A613B681B68102B07D03B681F
:101CA0001B68112B03D03B681B68122B63D1384A89
:101CB000374B19683B681B68102B09D03B681B68C1
:101CC000112B02D18023DB0304E080235B0401E0BD
:101CD00080231B040B4313603B681B68102B4AD105
:101CE0002C4B1B682C491800FEF71AFA03001A0047
:101CF00013009B009B185B00BB6002E0BB68013BCC
:101D0000BB60BB68002BF9D135E07B681B687A6843
:101D10001268916A3A681268012090400200D2432A
:101D20000A409A623B681B68102B07D03B681B680F
:101D3000112B03D03B681B68122B1CD1144A144B87
:101D400019683B681B68102B07D03B681B68112B78
:101D500001D1124B02E0124B00E0124B0B4013601A
:101D600009E07B685B6C20221A437B685A640F236E
:101D7000FB1801221A707B684022002199540F231E
:101D8000FB181B781800BD4604B080BD0110000090
:101D9000082701400400002040420F00FFFFBFFF62
:101DA000FFFFFFFEFFFF7FFF80B584B000AF7860CC
:101DB0000023FB600023BB607B681B689B680322D9
:101DC0001340012B12D17B681B681B680122134052
:101DD000012B09D07B681B68DA6880231B021A403C
:101DE00080231B029A4201D1012300E00023002B33
:101DF0004BD17B681B689B68264A13400DD07B68DB
:101E00005B6C10221A437B685A647B689B6C0122CE
:101E10001A437B689A64012338E07B681B687A6800
:101E20001268926801210A439A601B4B1B681B4988
:101E30001800FEF775F90300BB6002E0BB68013BC8
:101E4000BB60BB68002BF9D1FFF79CFC0300FB6073
:101E500014E0FFF797FC0200FB68D31A022B0DD9A0
:101E60007B685B6C10221A437B685A647B689B6CAE
:101E700001221A437B689A64012307E07B681B6890
:101E80001B6801221340012BE3D100231800BD463B
:101E900004B080BD170000800400002040420F0005
:101EA00080B584B000AF78607B685B6AFB60FB68DC
:101EB0005B6C5022134040D1FB685B6C8022920027
:101EC0001A43FB685A64FB681B68DA68C0231B016D
:101ED00013402DD1FB681B6A002B29D1FB681B68BE
:101EE0001B6808221340082B22D1FB681B689B68E3
:101EF0000422134010D1FB681B68FA68126852680C
:101F00000C218A435A60FB685B6C114A1340012222
:101F10001A43FB685A640BE0FB685B6C20221A438F
:101F2000FB685A64FB689B6C01221A43FB689A6445
:101F3000FB68180004F0AAFB05E0FB68DB6B1B6B79
:101F40007A6810009847C046BD4604B080BDC046C0
:101F5000FEFEFFFF80B584B000AF78607B685B6AEF
:101F6000FB60FB681800FFF700FEC046BD4604B0EA
:101F700080BD80B584B000AF78607B685B6AFB6031
:101F8000FB685B6C40221A43FB685A64FB689B6CDD
:101F900004221A43FB689A64FB681800FFF7EDFD02
:101FA000C046BD4604B080BD80B586B000AF786045
:101FB0001723FB1800221A7000233B610023FB60EB
:101FC0007B6840229B5C012B01D1022380E07B686F
:101FD0004022012199547B681B689B6803221340AF
:101FE000012B12D17B681B681B6801221340012B57
:101FF00009D07B681B68DA6880231B021A408023A3
:102000001B029A4201D1012300E00023002B4ED194
:102010007B685B6C304A134002221A437B685A6427
:102020007B681B68DB6803221340FB607B681B68CE
:102030007A681268D26803218A43DA607B681B6879
:102040007A6812689268802109060A439A60FFF74D
:1020500099FB03003B6114E0FFF794FB02003B692E
:10206000D31A022B0DD97B685B6C1222934310228A
:102070001A437B685A647B684022002199540123EB
:1020800026E07B681B689B68002BE5DB7B681B6890
:102090007A681268D168FA680A43DA607B685B6C18
:1020A0000322934301221A437B685A6409E07B6848
:1020B0005B6C20221A437B685A641723FB180122A9
:1020C0001A707B684022002199541723FB181B7853
:1020D0001800BD4606B080BDFDFEFFFF80B582B092
:1020E00000AF0200FB1D1A70064BFA1D127811009A
:1020F0001F220A40012191400A001A60C046BD46D5
:1021000002B080BD00E100E080B582B000AF020007
:10211000FB1D1A700749FB1D1B781A001F23134073
:1021200001229A40130080228B50C046BD4602B067
:1021300080BDC04600E100E0B0B582B000AF020053
:102140003960FB1D1A70FB1D1B787F2B32D92F4C79
:10215000FB1D1B781A000F231340083B99082B4ADC
:10216000FB1D1B7818000F230340083B9B08063318
:102170009B00D31804331B68FA1D12781000032249
:102180000240D200FF2090400200D2431A403B6838
:102190009B01FF201840FB1D1B781D0003232B40D3
:1021A000DB00984003001A438B1D9B00E3180433A7
:1021B0001A6027E0164CFB1D1B785BB29B08144984
:1021C000FA1D127852B29208C03292005258F91D8C
:1021D0000978080003210140C900FF208840010060
:1021E000C94311403A689201FF201040FA1D12784D
:1021F000150003222A40D200904002000A43C03357
:102200009B001A51C046BD4602B0B0BD00ED00E0D3
:1022100000E100E080B582B000AF78607B68013BF0
:102220000C4A934201D9012310E00B4B7A68013A22
:102230005A6001235B4203211800FFF77DFF064B24
:1022400000229A60044B07221A6000231800BD4642
:1022500002B080BDFFFFFF0010E000E080B584B059
:1022600000AFB9607A600F23FB18021C1A70BA68BD
:102270000F23FB181B785BB211001800FFF75CFFFF
:10228000C046BD4604B080BD80B582B000AF02003C
:10229000FB1D1A70FB1D1B785BB21800FFF71EFFB9
:1022A000C046BD4602B080BD80B582B000AF02001E
:1022B000FB1D1A70FB1D1B785BB21800FFF724FF93
:1022C000C046BD4602B080BD80B582B000AF786028
:1022D0007B681800FFF79EFF03001800BD4602B0A0
:1022E00080BD000080B582B000AF78607B68042BB1
:1022F00006D1084B074A126804210A431A6005E018
:10230000044B044A126804218A431A60C046BD4641
:1023100002B080BD10E000E080B500AF00F003F82F
:10232000C046BD4680BD80B500AFC046BD4680BD3D
:1023300080B584B000AF78600023FB607B68002B21
:1023400001D1012342E07B682122022199547B685C
:102350001B681B68FB60FB681E4A1340FB607B68C0
:102360005A687B689B681A437B68DB681A437B6802
:102370001B691A437B685B691A437B689B691A4334
:102380007B68DB691343FA681343FB607B681B6857
:10239000FA681A607B68180000F052F97B68002226
:1023A0009A627B680022DA627B6800221A637B688B
:1023B00000225A637B6800229A637B6821220121F4
:1023C00099547B6820220021995400231800BD46AF
:1023D00004B080BD0FC0FFFF80B586B000AFF860CD
:1023E000B9607A603B601723FB1800221A70FB6803
:1023F00020229B5C012B01D102234FE0FB682022AD
:1024000001219954FB6821229B5CDBB2012B3AD15C
:10241000FB68212202219954FB6800229A63FB6821
:102420001B68FA681268126801218A431A603B68C7
:102430007A68B968F86800F0D7F8FB68DB6A002BA7
:1024400008D0FB681B68FA68126812680E210A43FC
:102450001A600FE0FB681B68FA68126812680A21AC
:102460000A431A60FB681B68FA6812681268042144
:102470008A431A60FB681B68FA68126812680121B7
:102480000A431A6007E0FB682022002199541723B1
:10249000FB1802221A701723FB181B781800BD4680
:1024A00006B080BD80B584B000AF78607B68DB6B20
:1024B0001B68FB607B681B681B68BB607B681B6CD0
:1024C00004229A401300FA68134024D0BB68042207
:1024D000134020D07B681B681B682022134007D163
:1024E0007B681B687A681268126804218A431A6044
:1024F0007B68DB6B7A68126C042191400A005A6099
:102500007B68DB6A002B00D16AE07B68DB6A7A6853
:102510001000984764E07B681B6C02229A4013000D
:10252000FA6813402BD0BB680222134027D07B6887
:102530001B681B68202213400BD17B681B687A68DC
:10254000126812680A218A431A607B6821220121DD
:1025500099547B68DB6B7A68126C022191400A0007
:102560005A607B682022002199547B689B6A002B6B
:1025700036D07B689B6A7A681000984730E07B68A9
:102580001B6C08229A401300FA68134028D0BB68DD
:102590000822134024D07B681B687A68126812688E
:1025A0000E218A431A607B68DB6B7A68126C01210A
:1025B00091400A005A607B6801229A637B6821225D
:1025C000012199547B682022002199547B681B6B60
:1025D000002B05D07B681B6B7A6810009847FFE7DB
:1025E000C046BD4604B080BD80B584B000AFF86081
:1025F000B9607A603B60FB68DB6BFA68126C0121A2
:1026000091400A005A60FB681B683A685A60FB6890
:102610005B68102B08D1FB681B687A689A60FB68BE
:102620001B68BA68DA6007E0FB681B68BA689A60E2
:10263000FB681B687A68DA60C046BD4604B080BD9E
:1026400080B582B000AF78607B681B68084A94460A
:10265000634414211800FDF763FD03009A007B68B2
:102660001A647B68034ADA63C046BD4602B080BD87
:10267000F8FFFDBF0000024080B586B000AF786073
:10268000396000237B610023FB6000233B6149E14B
:102690003B681B6801217A6991400A001340FB6086
:1026A000FB68002B00D13AE13B685B68022B03D04A
:1026B0003B685B68122B23D17B69DA087B680832A0
:1026C0009200D3583B617B69072213409B000F2285
:1026D0009A401300DA433B6913403B613B681A6937
:1026E0007B6907210B409B009A4013003A69134312
:1026F0003B617B69DA087B68083292003969D15006
:102700007B681B683B617B695B0003229A40130076
:10271000DA433B6913403B613B685B6803221A4024
:102720007B695B009A4013003A6913433B617B6805
:102730003A691A603B685B68012B0BD03B685B68A9
:10274000022B07D03B685B68112B03D03B685B68AA
:10275000122B30D17B689B683B617B695B00032255
:102760009A401300DA433B6913403B613B68DA68E7
:102770007B695B009A4013003A6913433B617B68B5
:102780003A699A607B685B683B6101227B699A4089
:102790001300DA433B6913403B613B685B681B09EC
:1027A00001221A407B699A4013003A6913433B6146
:1027B0007B683A695A607B68DB683B617B695B00D8
:1027C00003229A401300DA433B6913403B613B68A4
:1027D0009A687B695B009A4013003A6913433B6136
:1027E0007B683A69DA603B685A6880235B0513406E
:1027F00000D194E0514B514A926901210A439A61F8
:102800004E4B9B6901221340BB60BB684C4A7B69FD
:102810009B0802339B009B583B617B69032213405A
:102820009B000F229A401300DA433B6913403B613F
:102830007A689023DB059A420DD07B68414A934227
:1028400007D07B68404A934201D1022304E005236C
:1028500002E0012300E000237A6903210A4092008C
:1028600093403A6913433B6135497B699B080233C6
:102870009B003A695A50354B1B683B61FB68DA4351
:102880003B6913403B613B685A6880235B021340FD
:1028900003D03A69FB6813433B612C4B3A691A60D9
:1028A0002A4B5B683B61FB68DA433B6913403B6141
:1028B0003B685A6880239B02134003D03A69FB6847
:1028C00013433B61214B3A695A60204B9B683B6143
:1028D000FB68DA433B6913403B613B685A688023DD
:1028E0005B03134003D03A69FB6813433B61174B0A
:1028F0003A699A60154BDB683B61FB68DA433B69D8
:1029000013403B613B685A6880239B03134003D00C
:102910003A69FB6813433B610C4B3A69DA607B69A7
:1029200001337B613B681A687B69DA40131E00D073
:10293000AEE6C046BD4606B080BDC04600100240AF
:102940000000014000040048000800480004014065
:1029500080B584B000AF78600A00BB1C1A807B6829
:102960001B69BA1C1288134004D00F23FB180122E4
:102970001A7003E00F23FB1800221A700F23FB18B4
:102980001B781800BD4604B080BD80B582B000AF92
:10299000786008001100BB1C021C1A807B1C0A1CFA
:1029A0001A707B1C1B78002B04D0BB1C1A887B6818
:1029B0009A6103E0BB1C1A887B689A62C046BD46D8
:1029C00002B080BD80B582B000AF0200BB1D1A808E
:1029D000094B5B69BA1D1288134008D0064BBA1D1B
:1029E00012885A61BB1D1B88180000F007F8C0460A
:1029F000BD4602B080BDC0460004014080B582B033
:102A000000AF0200BB1D1A80C046BD4602B080BDAB
:102A100080B582B000AF78607B68002B01D10123C4
:102A200081E07B6841229B5CDBB2002B07D17B6895
:102A30004022002199547B68180004F011FB7B6848
:102A40004122242199547B681B687A6812681268B5
:102A500001218A431A607B681B687A68526834498E
:102A60000A401A617B681B687A681268926831496B
:102A70000A409A607B68DB68012B08D17B681B6881
:102A80007A689268802109020A439A6007E07B68AD
:102A90001B687A689268842109020A439A607B68FD
:102AA000DB68022B04D17B681B68802212015A600C
:102AB0007B681B687A68126852681F490A435A602B
:102AC0007B681B687A681268D2681A490A40DA6023
:102AD0007B681B687A6811697A68526911437A6861
:102AE000926912020A43DA607B681B687A68D169CE
:102AF0007A68126A0A431A607B681B687A681268EF
:102B0000126801210A431A607B6800225A647B68BC
:102B10004122202199547B6800221A637B6842225B
:102B20000021995400231800BD4602B080BDC04664
:102B3000FFFFFFF0FF7FFFFF0080000290B589B02C
:102B400002AFF8600C00100019000A23FB18221CC9
:102B50001A800823FB18021C1A80BB1D0A1C1A804D
:102B600000237B61FB6841229B5CDBB2202B00D001
:102B70001CE1BB6A002B04D02C23FB181B88002B04
:102B800001D1012313E1FB6840229B5C012B01D1A1
:102B900002230CE1FB68402201219954FEF7F2FD6B
:102BA00003007B6180231902F8687B690093192375
:102BB000012200F041FB031E01D00323F7E0FB6874
:102BC000412221219954FB68422240219954FB68FB
:102BD00000225A64FB68BA6A5A62FB682C22BA184F
:102BE00012885A85FB6800225A63BB1D1C88082383
:102BF000FB181A880A23FB181988F8687B69019367
:102C00003B6B0093230000F019FA031E0FD0FB6802
:102C10005B6C042B05D1FB684022002199540123F1
:102C2000C5E0FB684022002199540323BFE0FB6804
:102C30005B8D9BB2FF2B11D9FB68FF221A85FB68C5
:102C40001B8DDAB280235C040A23FB181988F8680C
:102C500000230093230000F001FC12E0FB685B8D71
:102C60009AB2FB681A85FB681B8DDAB280239C043C
:102C70000A23FB181988F86800230093230000F04A
:102C8000EDFB7A69396BFB68180000F00EFB031E40
:102C900007D0FB685B6C042B01D1012387E0032381
:102CA00085E0FB681B68FA68526A501CF968486244
:102CB00012789A62FB685B8D9BB2013B9AB2FB680B
:102CC0005A85FB681B8D013B9AB2FB681A85FB682D
:102CD0001B8D002B3BD1FB685B8D9BB2002B36D04C
:102CE0003A6BF8687B69009313000022802100F0A2
:102CF000A3FA031E01D0032359E0FB685B8D9BB24E
:102D0000FF2B11D9FB68FF221A85FB681B8DDAB2F5
:102D100080235C040A23FB181988F86800230093B9
:102D2000230000F09BFB12E0FB685B8D9AB2FB680E
:102D30001A85FB681B8DDAB280239C040A23FB18DA
:102D40001988F86800230093230000F087FBFB68D4
:102D50005B8D9BB2002B94D17A69396BFB681800AC
:102D600000F0E2FA031E07D0FB685B6C042B01D174
:102D700001231CE003231AE0FB681B682022DA61B0
:102D8000FB681B68FA68126852680B490A405A606F
:102D9000FB68412220219954FB684222002199546A
:102DA000FB68402200219954002300E00223180010
:102DB000BD4607B090BDC04600E800FE90B589B0A2
:102DC00002AFF8600C00100019000A23FB18221C47
:102DD0001A800823FB18021C1A80BB1D0A1C1A80CB
:102DE00000237B61FB6841229B5CDBB2202B00D07F
:102DF0001CE1BB6A002B04D02C23FB181B88002B82
:102E000001D1012313E1FB6840229B5C012B01D11E
:102E100002230CE1FB68402201219954FEF7B2FC29
:102E200003007B6180231902F8687B6900931923F2
:102E3000012200F001FA031E01D00323F7E0FB6832
:102E4000412222219954FB68422240219954FB6877
:102E500000225A64FB68BA6A5A62FB682C22BA18CC
:102E600012885A85FB6800225A63BB1D1C88082300
:102E7000FB181A880A23FB181988F8687B690193E4
:102E80003B6B0093230000F048F9031E0FD0FB6852
:102E90005B6C042B05D1FB6840220021995401236F
:102EA000C5E0FB684022002199540323BFE0FB6882
:102EB0005B8D9BB2FF2B12D9FB68FF221A85FB6842
:102EC0001B8DDAB280235C040A23FB181988F8688A
:102ED00090239B010093230000F0C0FA13E0FB68ED
:102EE0005B8D9AB2FB681A85FB681B8DDAB2802372
:102EF0009C040A23FB181988F86890239B0100930F
:102F0000230000F0ABFA3A6BF8687B69009313007A
:102F10000022042100F090F9031E01D0032386E073
:102F2000FB685B6A591CFA685162FA681268526A57
:102F3000D2B21A70FB681B8D013B9AB2FB681A85EE
:102F4000FB685B8D9BB2013B9AB2FB685A85FB68BC
:102F50001B8D002B3BD1FB685B8D9BB2002B36D0C9
:102F60003A6BF8687B69009313000022802100F01F
:102F700063F9031E01D0032359E0FB685B8D9BB20C
:102F8000FF2B11D9FB68FF221A85FB681B8DDAB273
:102F900080235C040A23FB181988F8680023009337
:102FA000230000F05BFA12E0FB685B8D9AB2FB68CD
:102FB0001A85FB681B8DDAB280239C040A23FB1858
:102FC0001988F86800230093230000F047FAFB6893
:102FD0005B8D9BB2002B96D17A69396BFB68180028
:102FE00000F0A2F9031E07D0FB685B6C042B01D133
:102FF00001231CE003231AE0FB681B682022DA612E
:10300000FB681B68FA68126852680B490A405A60EC
:10301000FB68412220219954FB68422200219954E7
:10302000FB68402200219954002300E0022318008D
:10303000BD4607B090BDC04600E800FE90B587B021
:1030400002AFF8600C00100019000A23FB18221CC4
:103050001A800823FB18021C1A80BB1D0A1C1A8048
:10306000BB1D1B88DAB280235C040A23FB18198875
:10307000F86880239B010093230000F0EFF97A6A3F
:10308000396AFB68180000F010F9031E07D0FB68CE
:103090005B6C042B01D101233BE0032339E0BB1D12
:1030A0001B88012B07D1FB681B680822BA181288FD
:1030B000D2B29A621FE0FB681B680822BA18128815
:1030C000120A92B2D2B29A627A6A396AFB6818001E
:1030D00000F0EBF8031E07D0FB685B6C042B01D1FA
:1030E000012316E0032314E0FB681B680822BA18CA
:1030F0001288D2B29A623A6AF8687B6A0093130027
:103100000022802100F098F8031E01D0032300E084
:1031100000231800BD4605B090BD90B587B002AF42
:10312000F8600C00100019000A23FB18221C1A80FA
:103130000823FB18021C1A80BB1D0A1C1A80BB1D29
:103140001B88DAB20A23FB181988F86880239B01D0
:103150000093002300F082F97A6A396AFB6818004C
:1031600000F0A3F8031E07D0FB685B6C042B01D1B1
:1031700001233BE0032339E0BB1D1B88012B07D152
:10318000FB681B680822BA181288D2B29A621FE044
:10319000FB681B680822BA181288120A92B2D2B2CF
:1031A0009A627A6A396AFB68180000F07EF8031E9A
:1031B00007D0FB685B6C042B01D1012316E00323CD
:1031C00014E0FB681B680822BA181288D2B29A620F
:1031D0003A6AF8687B6A009313000022402100F0ED
:1031E0002BF8031E01D0032300E000231800BD4686
:1031F00005B090BD80B582B000AF78607B681B6879
:103200009B6902221340022B03D17B681B680022BA
:103210009A627B681B689B6901221340012B07D0CF
:103220007B681B687A681268926901210A439A6177
:10323000C046BD4602B080BD80B584B000AFF86026
:10324000B9603B60FB1D1A701BE03B68013318D06E
:103250003B68002B07D0FEF795FA0200BB69D21A33
:103260003B689A420DD9FB68412220219954FB68A2
:10327000422200219954FB684022002199540323E3
:103280000FE0FB681B689B69BA681A40BB68D31AD9
:103290005A425341DBB21A00FB1D1B789A42D4D02C
:1032A00000231800BD4604B080BD80B584B000AFD7
:1032B000F860B9607A602BE07A68B968FB6818003A
:1032C00000F06EF8031E01D0012329E0BB68013332
:1032D0001ED0BB68002B07D0FEF754FA02007B68B3
:1032E000D21ABB689A4213D9FB685B6C20221A433E
:1032F000FB685A64FB68412220219954FB684222F2
:1033000000219954FB68402200219954032307E0CF
:10331000FB681B689B6902221340022BCCD100235F
:103320001800BD4604B080BD80B584B000AFF86021
:10333000B9607A6028E07A68B968FB68180000F024
:103340002FF8031E01D0012326E0BB68002B07D015
:10335000FEF718FA02007B68D21ABB689A4213D9AA
:10336000FB685B6C20221A43FB685A64FB684122AD
:1033700020219954FB68422200219954FB68402285
:1033800000219954032307E0FB681B689B692022F6
:103390001340202BCFD100231800BD4604B080BDC0
:1033A00080B584B000AFF860B9607A60FB681B68D4
:1033B0009B6910221340102B48D11BE0BB680133DE
:1033C00018D0BB68002B07D0FEF7DCF902007B6841
:1033D000D21ABB689A420DD9FB6841222021995428
:1033E000FB68422200219954FB6840220021995435
:1033F00003232CE0FB681B689B6920221340202BD1
:10340000DCD1FB681B681022DA61FB681B68202294
:10341000DA61FB681800FFF7EDFEFB681B68FA68CD
:10342000126852680C490A405A60FB6804225A64C8
:10343000FB68412220219954FB68422200219954C3
:10344000FB68402200219954012300E0002318006A
:10345000BD4604B080BDC04600E800FE80B586B021
:1034600000AFF860080011007B600A23FB18021C03
:103470001A800923FB180A1C1A7000237B61FB6861
:103480001B685B687B617B690F4A13407B610A2381
:10349000FB181B889B059A0D0923FB181B78190440
:1034A000FF231B040B401A437B681A433B6A1343F8
:1034B0007A6913437B61FB681B687A695A60C0466E
:1034C000BD4606B080BDC046009800FC80B582B005
:1034D00000AF786039607B6841229B5CDBB2202BB7
:1034E00038D17B6840229B5C012B01D1022332E062
:1034F0007B684022012199547B6841222421995400
:103500007B681B687A681268126801218A431A6016
:103510007B681B687A681268126811490A401A6051
:103520007B681B687A68126811683A680A431A60F7
:103530007B681B687A681268126801210A431A6066
:103540007B684122202199547B68402200219954B4
:10355000002300E002231800BD4602B080BDC04633
:10356000FFEFFFFF80B584B000AF786039600023C3
:10357000FB607B6841229B5CDBB2202B39D17B68EE
:1035800040229B5C012B01D1022333E07B68402267
:10359000012199547B684122242199547B681B683E
:1035A0007A681268126801218A431A607B681B6876
:1035B0001B68FB60FB68114A1340FB603B681B0201
:1035C000FA681343FB607B681B68FA681A607B68C3
:1035D0001B687A681268126801210A431A607B68C6
:1035E0004122202199547B684022002199540023D4
:1035F00000E002231800BD4604B080BDFFF0FFFFCD
:1036000080B500AF074B074A126802210A431A60CF
:10361000054B054A126904210A431A6130BFC046AE
:10362000BD4680BD0070004000ED00E080B586B072
:1036300000AF786000233B617B681B680122134068
:1036400000D18DE0C34B5B680C221340042B0ED0DD
:10365000C04B5B680C221340082B16D1BD4B5A6837
:1036600080235B021A4080235B029A420DD1B94B42
:103670001A6880239B02134000D170E07B685B686E
:10368000002B00D06BE00123B5E27B685B68012B67
:1036900007D1B04BAF4A1268802149020A431A6031
:1036A0002FE07B685B68002B0CD1AA4BA94A1268FB
:1036B000A9490A401A60A74BA64A1268A7490A40BE
:1036C0001A601EE07B685B68052B0ED1A14BA14AF6
:1036D00012688021C9020A431A609E4B9D4A1268F3
:1036E000802149020A431A600BE09A4B994A1268FA
:1036F00099490A401A60974B964A126897490A40BE
:103700001A607B685B68002B14D0FEF73BF803005F
:103710003B6108E0FEF736F802003B69D31A642BE0
:1037200001D9032367E28B4B1A6880239B02134065
:10373000F0D015E0FEF726F803003B6108E0FEF745
:1037400021F802003B69D31A642B01D9032352E20A
:10375000804B1A6880239B021340F0D100E0C046E2
:103760007B681B680222134000D169E0794B5B68DB
:103770000C2213400BD0774B5B680C221340082BB4
:103780001CD1744B5A6880235B02134016D1714BD5
:103790001B680222134005D07B68DB68012B01D037
:1037A000012328E26B4A6B4B1B68F8218B431900FD
:1037B0007B681B69DB000B43136041E07B68DB68BF
:1037C000002B24D0634B634A126801210A431A601C
:1037D000FDF7D8FF03003B6108E0FDF7D3FF0200CF
:1037E0003B69D31A022B01D9032304E2594B1B680E
:1037F00002221340F1D0574A564B1B68F8218B43E5
:1038000019007B681B69DB000B43136018E0514B08
:10381000504A126801218A431A60FDF7B3FF030082
:103820003B6108E0FDF7AEFF02003B69D31A022BB3
:1038300001D90323DFE1474B1B6802221340F1D17A
:103840007B681B680822134036D07B68DB69002B3D
:1038500019D0404B3F4A526A01210A435A62FDF790
:1038600091FF03003B6108E0FDF78CFF02003B691C
:10387000D31A022B01D90323BDE1364B5B6A022226
:103880001340F1D018E0334B324A526A01218A4387
:103890005A62FDF777FF03003B6108E0FDF772FF16
:1038A00002003B69D31A022B01D90323A3E1294B60
:1038B0005B6A02221340F1D17B681B68042213402B
:1038C00000D1B5E01723FB1800221A70214BDA69EA
:1038D00080235B05134011D11E4B1E4AD269802103
:1038E00049050A43DA611B4BDA6980235B05134003
:1038F000FB60FB681723FB1801221A70184B1A682B
:1039000080235B0013401AD1154B154A12688021A1
:1039100049000A431A60FDF735FF03003B6108E0E8
:10392000FDF730FF02003B69D31A642B01D9032352
:1039300061E10B4B1A6880235B001340F0D07B6879
:103940009B68012B0ED1034B024A126A01210A43E4
:103950001A6235E000100240FFFFFEFFFFFFFBFF91
:10396000007000407B689B68002B0CD1A44BA44ADC
:10397000126A01218A431A62A14BA14A126A0421E8
:103980008A431A621CE07B689B68052B0CD19C4B18
:103990009B4A126A04210A431A62994B984A126A96
:1039A00001210A431A620BE0954B954A126A0121E4
:1039B0008A431A62924B924A126A04218A431A621B
:1039C0007B689B68002B14D0FDF7DCFE03003B6195
:1039D00009E0FDF7D7FE02003B69D31A894A9342FA
:1039E00001D9032307E1864B1B6A02221340F0D062
:1039F00013E0FDF7C7FE03003B6109E0FDF7C2FEDF
:103A000002003B69D31A7F4A934201D90323F2E0B3
:103A10007B4B1B6A02221340F0D11723FB181B7843
:103A2000012B05D1764B764AD26977490A40DA6193
:103A30007B681B681022134063D07B685B69012B95
:103A40002AD16F4B6E4A526B04210A435A636C4B66
:103A50006B4A526B01210A435A63FDF793FE030040
:103A60003B6108E0FDF78EFE02003B69D31A022B92
:103A700001D90323BFE0624B5B6B02221340F1D0FC
:103A80005F4A5F4B5B6BF8218B4319007B689B6936
:103A9000DB000B43536334E07B685B69053311D172
:103AA000574B574A526B04218A435A63544A544B2A
:103AB0005B6BF8218B4319007B689B69DB000B4330
:103AC00053631EE04E4B4E4A526B04210A435A6325
:103AD0004B4B4B4A526B01218A435A63FDF752FE0E
:103AE00003003B6108E0FDF74DFE02003B69D31A7D
:103AF000022B01D903237EE0414B5B6B0222134072
:103B0000F1D17B681B6A002B00D173E03C4B5B68F2
:103B10000C221340082B00D16AE07B681B6A022B41
:103B20004BD1374B364A126838490A401A60FDF7C4
:103B300029FE03003B6108E0FDF724FE02003B691B
:103B4000D31A022B01D9032355E02D4B1A68802389
:103B50009B041340F0D12A4A294BDB6A0F218B4387
:103B600019007B68DB6A0B43D362254A244B5B68F0
:103B7000274919407B68986A7B685B6A03430B435B
:103B800053601F4B1E4A1268802149040A431A6081
:103B9000FDF7F8FD03003B6108E0FDF7F3FD0200CF
:103BA0003B69D31A022B01D9032324E0144B1A6872
:103BB00080239B041340F0D01CE0114B104A126884
:103BC00012490A401A60FDF7DDFD03003B6108E081
:103BD000FDF7D8FD02003B69D31A022B01D903235C
:103BE00009E0074B1A6880239B041340F0D101E0E1
:103BF000012300E000231800BD4606B080BDC0468A
:103C00000010024088130000FFFFFFEFFFFFFFFEE0
:103C1000FFFFC2FF80B584B000AF78603960002339
:103C2000FB60694B1B6801221A403B689A4211D223
:103C3000654B654A126801218A4311003A680A43BC
:103C40001A60614B1B6801221A403B689A4201D0FE
:103C50000123B5E07B681B680222134009D05B4A50
:103C60005A4B5B68F0218B4319007B689B680B43C0
:103C700053607B681B680122134000D167E07B68BA
:103C80005B68012B07D1514B1A6880239B021340BC
:103C900014D1012394E07B685B68022B07D14B4B66
:103CA0001A6880239B04134008D1012388E0474B06
:103CB0001B680222134001D1012381E0434A434B98
:103CC0005B6803218B4319007B685B680B4353607F
:103CD000FDF758FD0300FB607B685B68012B11D189
:103CE00009E0FDF74FFD0200FB68D31A384A934202
:103CF00001D9032364E0354B5B680C221340042B8D
:103D0000EFD124E07B685B68022B1BD109E0FDF753
:103D100039FD0200FB68D31A2D4A934201D90323CF
:103D20004EE02A4B5B680C221340082BEFD10EE0CB
:103D3000FDF728FD0200FB68D31A254A934201D9FA
:103D400003233DE0214B5B680C221340F0D11E4B56
:103D50001B6801221A403B689A4211D91A4B1A4A31
:103D6000126801218A4311003A680A431A60164B0F
:103D70001B6801221A403B689A4201D001231FE0D0
:103D80007B681B680422134008D0104A0F4B5B6805
:103D9000104919407B68DB680B43536000F020F842
:103DA00001000A4B5B681B090F2213400A4AD35CCF
:103DB0000A00DA40094B1A600020FDF7BBFC002323
:103DC0001800BD4604B080BD002002400010024033
:103DD00088130000FFF8FFFFE474000804000020CF
:103DE00090B58FB000AF1423FB18284A13CA13C331
:103DF00012681A603B1D264A13CA13C312681A6060
:103E00000023FB620023BB6200237B6300237B62F1
:103E100000233B631F4B5B68FB62FB6A0C22134071
:103E2000042B02D0082B03D027E01B4B3B6327E079
:103E3000FB6A9B0C0F2213401422BA18D35C7B62DE
:103E4000144BDB6A0F2213403A1DD35CBB62FA6A43
:103E500080235B02134009D0B96A0F48FCF760F970
:103E600003001A007B6A53437B6303E07B6A0B4ABF
:103E700053437B637B6B3B6302E0074B3B63C04672
:103E80003B6B1800BD460FB090BDC046487300089C
:103E9000587300080010024000127A0000093D002B
:103EA00080B500AF024B1B681800BD4680BDC04600
:103EB0000400002080B586B000AF786000233B612D
:103EC0000023FB607B681A6880235B02134000D1EB
:103ED0008EE01723FB1800221A70574BDA698023F3
:103EE0005B05134011D1544B534AD26980214905D7
:103EF0000A43DA61504BDA6980235B051340BB60EB
:103F0000BB681723FB1801221A704C4B1A688023D8
:103F10005B0013401AD1494B484A1268802149007E
:103F20000A431A60FDF72EFC03003B6108E0FDF731
:103F300029FC02003B69D31A642B01D9032376E0E4
:103F40003E4B1A6880235B001340F0D03A4B1A6A4C
:103F5000C0239B001340FB60FB68002B34D07B68C0
:103F60005A68C0239B001A40FB689A422CD0324BFF
:103F70001B6A334A1340FB602F4B2F4A126A802181
:103F800049020A431A622C4B2B4A126A2D490A40F5
:103F90001A62294BFA681A62FB680122134013D097
:103FA000FDF7F0FB03003B6109E0FDF7EBFB0200CE
:103FB0003B69D31A244A934201D9032337E01E4BAD
:103FC0001B6A02221340F0D01B4A1B4B1B6A1C4980
:103FD00019407B685B680B4313621723FB181B783F
:103FE000012B05D1144B144AD26918490A40DA61F1
:103FF0007B681B680122134009D00F4A0E4B1B6BD4
:1040000003218B4319007B689B680B4313637B6818
:104010001B682022134009D0074A074B1B6B102155
:104020008B4319007B68DB680B4313630023180084
:10403000BD4606B080BDC046001002400070004082
:10404000FFFCFFFFFFFFFEFF88130000FFFFFFEFF5
:1040500080B582B000AF78607B68002B01D101236E
:1040600081E07B685B7FDBB2002B06D17B6800229E
:104070001A777B68180003F02FF87B6802225A77C2
:104080007B681B68CA225A627B681B6853225A628B
:104090007B68180000F059FB031E08D07B681B6882
:1040A000FF225A627B6804225A7701235BE07B6817
:1040B0001B687A68126892682D490A409A607B688A
:1040C0001B687A68126891687A6850687A68126921
:1040D00010437A68526902430A439A607B681B68FE
:1040E0007A68D2681A617B681B687A6812681169FD
:1040F0007A68926812040A431A617B681B687A68BE
:104100001268D26880218A43DA607B681B689B68EA
:10411000202213400ED17B68180000F0EDFA031E38
:1041200008D07B681B68FF225A627B6804225A779A
:10413000012318E07B681B687A681268126C0D49CD
:104140000A401A647B681B687A681268116C7A6886
:1041500092690A431A647B681B68FF225A627B6873
:1041600001225A7700231800BD4602B080BDC04628
:10417000BFFF8FFFFFFFFBFF90B587B000AFF86078
:10418000B9607A6000237B61FB681B7F012B01D142
:104190000223ADE0FB6801221A77FB6802225A77FE
:1041A0007B68002B25D1FB681B689B68402213406D
:1041B00002D1BB680022DA70BB681B78180000F0DF
:1041C000F0FA03001C04BB685B78180000F0E9FA01
:1041D00003001B021C43BB689B78180000F0E1FA47
:1041E000030022001A43BB68DB781B0413437B6186
:1041F0001FE0FB681B689B684022134007D0BB6828
:104200001B78180000F0EEFA03007B6102E0BB6847
:104210000022DA70BB681B781A04BB685B781B024B
:104220001343BA6892781A43BB68DB781B041343C4
:104230007B61FB681B68CA225A62FB681B685322B9
:104240005A62FB68180000F080FA031E0BD0FB686E
:104250001B68FF225A62FB6804225A77FB6800221F
:104260001A77012344E0FB681B687A6922490A40F7
:104270001A60FB681B68FA68126892681F490A4056
:104280009A60FB681B68FA6812689168BA68D0681F
:10429000BA68126902430A439A60FB681B68FA68AD
:1042A0001268D26880218A43DA60FB681B689B68C9
:1042B0002022134011D1FB68180000F01DFA031EE4
:1042C0000BD0FB681B68FF225A62FB6804225A77F6
:1042D000FB6800221A7701230AE0FB681B68FF22B3
:1042E0005A62FB6801225A77FB6800221A77002382
:1042F0001800BD4607B090BD7F7F7F00FFFFFBFF2A
:1043000090B587B000AFF860B9607A6000237B6138
:10431000FB681B7F012B01D102239FE0FB68012278
:104320001A77FB6802225A777B68002B0ED1BB6894
:104330005B781A001023134008D0BB685B7810220A
:104340009343DBB20A33DAB2BB685A707B68002B46
:104350001CD1BB68DB78180000F023FA03001C04B2
:10436000BB685B78180000F01CFA03001B021C43BA
:10437000BB689B78180000F014FA030022001A436F
:10438000BB681B785B0313437B611CE0BB685B78F5
:10439000180000F027FA03007B61BB689B781800C7
:1043A00000F020FA03007B61BB68DB781A04BB686D
:1043B0005B781B021343BA6892781A43BB681B7878
:1043C0005B0313437B61FB681B68CA225A62FB686C
:1043D0001B6853225A62FB68180000F0B6F9031EEE
:1043E0000BD0FB681B68FF225A62FB6804225A77D5
:1043F000FB6800221A77012330E0FB681B687A69AA
:1044000018490A405A60FB681B68FA681268D2684B
:1044100080218A43DA60FB681B689B682022134076
:1044200011D1FB68180000F067F9031E0BD0FB6880
:104430001B68FF225A62FB6804225A77FB6800223D
:104440001A7701230AE0FB681B68FF225A62FB68A7
:1044500001225A77FB6800221A7700231800BD4614
:1044600007B090BD3FFFFF0090B589B000AFF86086
:10447000B9607A600023BB610023FB6100237B618C
:10448000FB681B7F012B01D10223F2E0FB680122B4
:104490001A77FB6802225A777B68002B36D1FB68BB
:1044A0001B689B684022134002D1BB680022DA706F
:1044B000BB681B78180000F074F903001C04BB688B
:1044C0005B78180000F06DF903001B021C43BB6809
:1044D0009B78180000F065F9030022001A43BB68BE
:1044E000DB781B041A431400BB6820229B5C180075
:1044F00000F057F903001B0622001A43BB68DB6972
:104500001A43BB685B691343FB613FE0FB681B68B0
:104510009B684022134007D0BB681B78180000F04E
:1045200061F90300FB6102E0BB680022DA70BB683E
:10453000DB69002B08D1BB6820229B5C180000F0CF
:1045400051F90300FB6107E0BB6820229B5C180067
:1045500000F048F90300FB61BB681B781A04BB68D4
:104560005B781B021343BA6892781A43BB68DB7806
:104570001B041A43BB6820215B5C1B061A43BB6803
:10458000DB691A43BB685B691343FB61BB685A680C
:10459000BB689B6913437B61FB681B68CA225A6234
:1045A000FB681B6853225A62FB681B68FA68126832
:1045B000926832490A409A60FB681B68FA68126880
:1045C000D268FF210A402E490A43DA60FDF7DAF883
:1045D0000300BB6114E0FDF7D5F80200BB69D21AF5
:1045E000FA239B009A420BD9FB681B68FF225A6290
:1045F000FB6803225A77FB6800221A77032338E00E
:10460000FB681B68DB6801221340E4D0FB681B6871
:10461000FA69DA61FB681B687A695A64FB681B688F
:10462000FA6812689268802149000A439A60FB6820
:104630001B68FA6812689268802149010A439A60EF
:10464000104B104A1268802189020A431A600D4BF0
:104650000C4A9268802189020A439A60FB681B68B1
:10466000FF225A62FB6801225A77FB6800221A7700
:1046700000231800BD4609B090BDC046FFFEFFFFF5
:104680007FFEFFFF0004014080B582B000AF78607C
:104690007B681B689A6880235B01134014D07B6899
:1046A0001B68DA6880235B0013400DD07B6818001C
:1046B00000F01AF87B681B687A681268D268FF21DC
:1046C0000A4007490A43DA60064B802292025A6187
:1046D0007B6801225A77C046BD4602B080BDC04605
:1046E0007FFEFFFF0004014080B582B000AF78601C
:1046F000C046BD4602B080BD80B584B000AF7860D2
:104700000023FB607B681B687A681268D268A0216E
:104710008A43DA60FDF736F80300FB600AE0FDF734
:1047200031F80200FB68D21AFA239B009A4201D9A1
:10473000032306E07B681B68DB6820221340EED071
:1047400000231800BD4604B080BD80B584B000AF22
:1047500078600023FB607B681B68DB6840221340A5
:104760001AD17B681B6801225242DA60FDF70AF811
:104770000300FB600AE0FDF705F80200FB68D21AAF
:10478000FA239B009A4201D9032306E07B681B6849
:10479000DB6840221340EED000231800BD4604B071
:1047A00080BD80B584B000AF0200FB1D1A700023ED
:1047B000FB6007E0FB680133FB60FB1DFA1D12780C
:1047C0000A3A1A70FB1D1B78092BF3D8FB68DBB281
:1047D0001B01DAB2FB1D1B781343DBB21800BD4688
:1047E00004B080BD80B584B000AF0200FB1D1A701C
:1047F0000023FB60FB1D1B781B09DBB21A001300B2
:104800009B009B185B00FB60FB1D1B780F22134075
:10481000DAB2FB68DBB2D318DBB21800BD4604B0D5
:1048200080BD000080B584B000AF78607B68002B4D
:1048300001D1012388E07B6800229A627B685D22B7
:104840009B5CDBB2002B07D17B685C220021995472
:104850007B68180002F060FC7B685D22022199549D
:104860007B681B687A681268126840218A431A6064
:104870007B68DA68E023DB009A4202D90023FB6000
:1048800002E080235B01FB607B68DA68F0231B0198
:104890009A4208D07B68DA68E023DB009A4202D0B3
:1048A0007B6800229A627B681B6B002B0CD17B68B3
:1048B000DA68E023DB009A4203D97B6802221A639C
:1048C00002E07B6801221A637B681B687A68516882
:1048D0007A68926811437A68126911437A6852695A
:1048E00011437A68906980229200024011437A68ED
:1048F000D26911437A68126A11437A68926A0A434C
:104900001A607B681B687A689269120C0421114056
:104910007A68526A11437A68526B11437A68D26896
:104920001143FA680A435A607B681B687A68126808
:10493000D26907490A40DA617B6800221A667B68FF
:104940005D220121995400231800BD4604B080BDAA
:10495000FFF7FFFF80B58AB000AFF860B9607A60FA
:104960001A00BB1C1A800023FB610023BB610023DB
:104970007B6101237B622323FB1800221A70FB68F2
:104980005C229B5C012B01D10223F1E1FB685C22DC
:1049900001219954FCF7F6FE03007B61FB685D2260
:1049A0009B5CDBB2FB61FB685B68BB61FB69012B55
:1049B00010D0BA6982235B009A4206D1FB689B68DB
:1049C000002B02D1FB69042B04D02323FB18022205
:1049D0001A70C2E1BB68002B06D07B68002B03D0A5
:1049E000BB1C1B88002B04D12323FB1801221A7047
:1049F000B3E1FB685D229B5CDBB2042B03D0FB6858
:104A00005D2205219954FB6800221A66FB687A68CA
:104A10001A64FB68BA1C462112885A52FB68BA1CF9
:104A2000442112885A52FB68BA689A63FB68BA1C20
:104A30001288DA87FB68BA1C12889A87FB68002202
:104A4000DA64FB6800221A65FB68DA68E023DB00A1
:104A50009A4205D8FB6846229B5A9BB2012B08D983
:104A6000FB681B68FA6812685268C3490A405A60BA
:104A700008E0FB681B68FA681268526880214901E7
:104A80000A435A60FB681B681B6840221340402B96
:104A900007D0FB681B68FA681268126840210A4355
:104AA0001A60FB68DA68E023DB009A4200D875E000
:104AB000FB685B68002B04D0FB68DB8F9BB2012B8B
:104AC00060D1FB681B68BA681288DA60BB68023381
:104AD000BB60FB68DB8F9BB2013B9AB2FB68DA8755
:104AE00050E07B6A002B1CD0FB68DB8F9BB2002B55
:104AF00017D0FB681B689B6802221340022B10D161
:104B0000FB681B68BA681288DA60BB680233BB6056
:104B1000FB68DB8F9BB2013B9AB2FB68DA8700230C
:104B20007B62FB6846229B5A9BB2002B1AD0FB6823
:104B30001B689B6801221340012B13D1FB681B6883
:104B4000DB689AB27B681A807B6802337B60FB6803
:104B500046229B5A9BB2013B99B2FB68462299526E
:104B600001237B623B6B01330CD0FCF70BFE020090
:104B70007B69D21A3B6B9A4204D32323FB1803228E
:104B80001A70EAE0FB68DB8F9BB2002BA9D1FB68AF
:104B900046229B5A9BB2002BA3D1CBE0FB685B68FB
:104BA000002B05D0FB68DB8F9BB2012B00D0B4E05B
:104BB000FB68DB8F9BB2012B0FD9FB681B68BA68BF
:104BC0001288DA60BB680233BB60FB68DB8F9BB284
:104BD000023B9AB2FB68DA879FE0FB681B680C33E4
:104BE0001A00BB68591CB9601B781370FB68DB8F17
:104BF0009BB2013B9AB2FB68DA878EE07B6A002B9E
:104C000032D0FB68DB8F9BB2002B2DD0FB681B687A
:104C10009B6802221340022B26D1FB68DB8F9BB2DC
:104C2000012B0FD9FB681B68BA681288DA60BB6871
:104C30000233BB60FB68DB8F9BB2023B9AB2FB681E
:104C4000DA870FE0FB681B680C331A00BB68591C3D
:104C5000B9601B781370FB68DB8F9BB2013B9AB283
:104C6000FB68DA8700237B62FB6846229B5A9BB273
:104C7000002B42D0FB681B689B6801221340012B6C
:104C80003BD1FB6846229B5A9BB2012B21D9FB6882
:104C90001B68DB689AB27B681A807B6802337B6092
:104CA000FB6846229B5A9BB2023B99B2FB684622A4
:104CB0009952FB6846229B5A9BB2012B1BD8FB687A
:104CC0001B68FA6812685268802149010A435A60D9
:104CD00011E07B685A1C7A60FA6812680C3212780C
:104CE000D2B21A70FB6846229B5A9BB2013B99B222
:104CF000FB684622995201237B623B6B01330CD047
:104D0000FCF740FD02007B69D21A3B6B9A4204D348
:104D10002323FB1803221A701FE0FB68DB8F9BB272
:104D2000002B00D06AE7FB6846229B5A9BB2002BFF
:104D300000D063E77A69396BFB68180000F008F966
:104D4000031E02D0FB6820221A66FB681B6E002B34
:104D500003D02323FB1801221A70FB685D22012176
:104D60009954FB685C22002199542323FB181B787B
:104D70001800BD460AB080BDFFEFFFFF80B584B0CC
:104D800000AFF860B9607A603B6050E03B68013387
:104D90004DD03B68002B07D0FCF7F4FC0200BB6948
:104DA000D21A3B689A4242D3FB681B68FA681268C1
:104DB0005268E0218A435A60FB685A6882235B008C
:104DC0009A4213D1FB689A6880231B029A4205D04D
:104DD000FB689A688023DB009A4207D1FB681B6856
:104DE000FA681268126840218A431A60FB689A6A5E
:104DF00080239B019A4210D1FB681B68FA681268F5
:104E0000126814490A401A60FB681B68FA68126845
:104E10001268802189010A431A60FB685D22012122
:104E20009954FB685C220021995403230EE0FB682F
:104E30001B689B68BA681A40BB689A4201D101237B
:104E400000E000237A689342A0D100231800BD46F9
:104E500004B080BDFFDFFFFF80B586B000AFF86013
:104E6000B9607A603B6063E0BA68C023DB009A42B5
:104E70000DD17B68002B0AD1FB681B680C331B78B3
:104E8000DAB21723FB181A701723FB181B783B683C
:104E900001334DD03B68002B07D0FCF773FC0200B8
:104EA0003B6AD21A3B689A4242D3FB681B68FA6895
:104EB00012685268E0218A435A60FB685A6882236C
:104EC0005B009A4213D1FB689A6880231B029A42C6
:104ED00005D0FB689A688023DB009A4207D1FB6803
:104EE0001B68FA681268126840218A431A60FB68DE
:104EF0009A6A80239B019A4210D1FB681B68FA686A
:104F00001268126811490A401A60FB681B68FA6847
:104F100012681268802189010A431A60FB685D22C9
:104F200001219954FB685C2200219954032308E075
:104F3000FB681B689B68BA681A407B689A4293D1E9
:104F400000231800BD4606B080BDC046FFDFFFFF4E
:104F500080B586B002AFF860B9607A60BA68C023E5
:104F60005901F8687B68009313000022FFF774FF73
:104F7000031E07D0FB681B6E20221A43FB681A66CB
:104F8000032327E0BA68F8687B68009313000022C7
:104F90008021FFF7F3FE031E07D0FB681B6E202263
:104FA0001A43FB681A66032314E0BA68C023D900C9
:104FB000F8687B68009313000022FFF74DFF031E83
:104FC00007D0FB681B6E20221A43FB681A66032376
:104FD00000E000231800BD4604B080BD80B582B05B
:104FE00000AF0200FB1D1A703E4B1B78FA1D1278B1
:104FF0009A4271D0FB1D1B78042B6FD89A003A4B54
:10500000D3181B689F46012000F0DEFC03005BB252
:105010001C2293435BB20C2213435BB2DBB2190038
:10502000012000F0F1FC012000F0AEFC43E0012083
:1050300000F0CAFC03005BB21C2293435BB2102257
:1050400013435BB2DBB21900012000F0DDFC00204D
:1050500000F09AFC2FE0012000F0B6FC03005BB2E8
:105060001C2293435BB2082213435BB2DBB21900EC
:10507000012000F0C9FC1EE0012000F0A5FC0300A7
:105080005BB21C2293435BB2042213435BB2DBB2DC
:105090001900012000F0B8FC0DE0012000F094FCA4
:1050A00003001A001C239A431300DBB219000120ED
:1050B00000F0AAFCC046C0460A4B1B78002B06D164
:1050C000272000F081FC03005BB2002BF4DA054BD3
:1050D000FA1D12781A7002E0C04600E0C046BD46D4
:1050E00002B080BD00000020D074000880B582B0FE
:1050F00000AF0200FB1D1A700F21132000F084FC8A
:10510000112000F061FC03005BB21F2213405BB270
:10511000602213435BB2DBB21900112000F074FC73
:10512000C046BD4602B080BD90B58FB000AF040050
:1051300008001100FB1D221C1A70BB1D021C1A70F6
:105140007B1D0A1C1A700823FB1801221A70082301
:10515000FB1804225A700823FB1802229A700823B5
:10516000FB180022DA700823FB1803221A710823A7
:10517000FB1802225A710823FB1804229A71082393
:10518000FB184022DA710823FB1805221A72082343
:10519000FB1803225A720823FB1806229A7208236E
:1051A000FB183322DA720823FB1807221A73FB1D3F
:1051B0001B781F2B0DD0FB1D1B782B2B07D0FB1D45
:1051C0001B78562B01D1D92304E0E42302E06C23A1
:1051D00000E04E230822BA1853730823FB18082254
:1051E0009A73FB1D1B781F2B0DD0FB1D1B782B2BDF
:1051F00007D0FB1D1B78562B01D1002304E0C023F0
:1052000002E0402300E0C0230822BA18D373082329
:10521000FB1809221A740823FB1800225A74082369
:10522000FB1819229A740823FB184222DA74082307
:10523000FB1825221A750823FB1840225A750823EB
:10524000FB1826229A750823FB180722DA75082313
:10525000FB1828221A760823FB1810225A760823F6
:10526000FB1829229A760823FB18DC22DA76082319
:10527000FB182E221A770823FB1888225A77082356
:10528000FB182F229A770823FB182D22DA770823A0
:10529000FB182022302199540823FB187A1D212164
:1052A00012785A540823FB182222372199540823D4
:1052B000FB182322902199540823FB18242238211B
:1052C00099540823FB182522422199540823FB18DE
:1052D00026223C2199540823FB1827228F21995418
:1052E0000823FB1828223D2199540823FB18292262
:1052F000122199540823FB182A226F21995408235C
:10530000FB182B22302199540823FB182C22FF2153
:1053100099540823FB182D2200219954012001F0F3
:105320003DF93723FB1800221A7019E03723FB18C8
:105330001A780823FB185200D05C3723FB181B781F
:105340000822BA185B00D31801331B78190000F04B
:105350005BFB3723FB181A783723FB1801321A70CE
:105360003723FB181A780823FB185200D35CFF2B55
:10537000DCD1002000F080FA0120FFF7B7FE012009
:10538000FFF72CFE322001F069F9C046272000F01B
:105390001BFB03005BB2002B08DB01F047F90300A5
:1053A0001A0001235340DBB2002BEFD101F03EF98C
:1053B000031E01D0002304E0044BBA1D12781A70BA
:1053C00001231800BD460FB090BDC0466E000020FE
:1053D00080B500AF0020FFF701FEC046BD4680BD8E
:1053E00080B582B000AF0200FB1D1A70FB1D1B7858
:1053F000DAB21F2A00D91F23DAB20F4B1A700E4BF4
:105400001B785B08DAB20C4B1A70112000F0DCFA42
:1054100003005BB21F2293435AB2074B1B785BB267
:1054200013435BB2DBB21900112000F0EDFAC04665
:10543000BD4602B080BDC0460100002080B500AF6F
:105440000B4B1B78032B0FD10A4B1B78DBB2002BC5
:105450000AD1002000F054FA03005A3304DA012084
:10546000FFF7BCFD012300E000231800BD4680BD0E
:10547000000000206800002090B585B002AF040055
:10548000396010001900FB1D221C1A70BB1D021C84
:105490001A707B1D0A1C1A703D2000F095FA03005B
:1054A0001A0004231343DBB219003D2000F0ACFACC
:1054B00001E000F0B7F9FFF7C1FF03001A00012374
:1054C0005340DBB2002BF4D17B1D1C78BB1D1A7836
:1054D0003968FB1D187800230093230000F004F8BE
:1054E000C046BD4603B090BD90B585B000AF040086
:1054F000396010001900FB1D221C1A70BB1D021C14
:105500001A707B1D0A1C1A700120FFF767FDC04648
:10551000272000F059FA03005BB2002BF8DA0021D3
:10552000252000F071FABB1D1B783D2B02D9BB1D55
:105530003D221A700F23FB1800221A702023FB183B
:105540001B78002B04D00F23FB1880221A7007E071
:105550007B1D1B78002B03D00F23FB1840221A70F1
:1055600000F071FA802001F045F8BB1D1B78033371
:10557000DBB2180001F03EF8FB1D1B78180001F0AB
:1055800039F8254B1B78180001F034F80F23FB186D
:105590001B78180001F02EF80E23FB1800221A7059
:1055A0000FE00E23FB181B783A68D3181B781800FD
:1055B00001F020F80E23FB181A780E23FB18013295
:1055C0001A700E23FA18BB1D12781B789A42E8D382
:1055D00000F043FA0420FFF701FDFA239B001800B6
:1055E00001F03CF8C04600F0F6FF03001A0001236A
:1055F0005340DBB2002B08D001F018F803001A006A
:1056000001235340DBB2002BEDD10120FFF7E6FC74
:10561000C046BD4605B090BD6E00002090B583B079
:1056200000AF534B1B78032B00D096E0282000F0EE
:10563000CBF903001A000423134000D18DE00120B0
:10564000FFF7CCFC00F0FFF9002000F0D3FF0020B2
:1056500000F0D0FF03001A00464B1A70454B1B7830
:10566000DBB2422B03D8434B1B78DAB200E0422274
:10567000404B1A70002000F0BDFF03001A003E4BA3
:105680001A703E4B1B7801225340DBB2002B0BD02B
:10569000394B1B78DAB23A4B1B789A4204D0364B1E
:1056A0001B78DBB2FF2B04D1324B1B78DBB2022B11
:1056B00007D8304B00221A7000F0CFF900F06EF8D6
:1056C00052E02C4B1B78DBB2033BDAB22D4B1A7045
:1056D000002000F08FFF03001A002B4B1A70BC1D36
:1056E000002000F087FF03002370BB1D1B787F2282
:1056F0009343DAB2254B1A70BB1D1B78402213402E
:10570000DAB2234B1A70FB1D00221A700DE0FB1D4C
:105710001C78002000F06EFF03001A001D4B1A5584
:10572000FB1D1A78FB1D01321A70164B1B78DBB279
:10573000FA1D12789A42EAD3124B1B78DBB23C2B4B
:1057400006D8104B1B78DBB21A00124B002199547B
:1057500000F083F90320FFF741FC002000F0D0F8AF
:1057600003001A000C4B1A80BD4603B090BDC04622
:105770000000002068000020670000206F0000206B
:105780006E00002065000020660000206A000020F6
:1057900069000020280000206C00002080B500AFC8
:1057A000194B00221A70194B00221A70184B002254
:1057B0001A70184B00221A70174B00221A70174BE0
:1057C00000221A70164B00221A80282000F0FCF8E4
:1057D00003001A00042313400BD03D2000F0F4F81E
:1057E00003001A0004231343DBB219003D2000F02C
:1057F0000BF94021252000F007F90320FFF7EEFB0D
:10580000C046BD4680BDC046650000206600002041
:105810006700002068000020690000206A00002066
:105820006C00002080B500AF114B1B78042B01D118
:1058300000231AE000F0A2FE0D4B1B78032B09D1C8
:105840000C4B1B78DBB2002B04D00120FFF7C6FB0A
:1058500001230AE0064B1B78032B03D100F096FED0
:10586000002302E0FFF79AFF00231800BD4680BD29
:10587000000000206800002080B584B000AF786090
:105880000120FFF7ABFB7B68002B20D000F0DBF89A
:10589000BE2000F0AFFE0F23FB1800221A700FE0AD
:1058A0000F23FB181B787A68D3181B78180000F0B8
:1058B000A1FE0F23FB181A780F23FB1801321A7070
:1058C0000F23FB181B780F2BEAD900F0C6F83D20F8
:1058D00000F07AF803005BB2012293435AB27B686E
:1058E000591E8B41DBB25BB213435BB2DBB21900D2
:1058F0003D2000F089F8C046BD4604B080BD0000E0
:1059000080B582B000AF0200FB1D1A70154B00225B
:105910001A80FB1D1B78002B0CD00121232000F0E6
:1059200073F8C046232000F04FF803001A0002234A
:105930001340F7D0242000F047F803009BB25B42ED
:105940009BB21AB2074B1A80064B1B881BB25B1026
:105950001AB2044B1A80034B1B881BB21800BD46B9
:1059600002B080BD6C00002080B582B000AF0200A4
:10597000FB1D1A70034BFA1D12781A70C046BD4603
:1059800002B080BD6F00002080B582B000AF020081
:10599000FB1D1A70FB1D1B78002B01D05D2300E05E
:1059A000552319005A2000F02FF8FB1D1B78002BFF
:1059B00001D07C2300E0702319005C2000F024F863
:1059C000C046BD4602B080BD90B585B000AF0200B4
:1059D000FB1D1A7000F037F8FB1D1B787F22134067
:1059E000DBB2180000F006FE0F23FC18002000F0C8
:1059F00001FE0300237000F030F80F23FB181B7822
:105A00001800BD4605B090BD80B582B000AF020061
:105A1000FB1D1A70BB1D0A1C1A7000F014F8FB1D48
:105A20001B78802252421343DBB2180000F0E2FDE3
:105A3000BB1D1B78180000F0DDFD00F00EF8C0461D
:105A4000BD4602B080BD80B500AF00F097FD0020DC
:105A500000F0A4FDC046BD4680BD80B500AF01206A
:105A600000F09CFD00F092FDC046BD4680BD80B5B3
:105A700082B000AF78607B6803221A707B680022D6
:105A80005A707B6803229A707B680322DA707B6805
:105A900003221A717B6803225A71C046BD4602B0C8
:105AA00080BD80B582B000AF78607B6800221A703C
:105AB000C046BD4602B080BD80B58AB004AFF86074
:105AC0007A600B23FB180A1C1A70FB689B8C162249
:105AD000BA18DB181380FB68986A0B23FB181B7835
